{
  "contractName": "MyLandContract",
  "abi": [
    {
      "inputs": [],
      "payable": false,
      "stateMutability": "nonpayable",
      "type": "constructor"
    },
    {
      "anonymous": false,
      "inputs": [
        {
          "indexed": false,
          "internalType": "address",
          "name": "_owner",
          "type": "address"
        },
        {
          "indexed": false,
          "internalType": "uint256",
          "name": "_landID",
          "type": "uint256"
        }
      ],
      "name": "Add",
      "type": "event"
    },
    {
      "constant": true,
      "inputs": [
        {
          "internalType": "address",
          "name": "",
          "type": "address"
        },
        {
          "internalType": "uint256",
          "name": "",
          "type": "uint256"
        }
      ],
      "name": "__ownedLands",
      "outputs": [
        {
          "internalType": "address",
          "name": "ownerAddress",
          "type": "address"
        },
        {
          "internalType": "string",
          "name": "location",
          "type": "string"
        },
        {
          "internalType": "uint256",
          "name": "cost",
          "type": "uint256"
        },
        {
          "internalType": "uint256",
          "name": "landID",
          "type": "uint256"
        },
        {
          "internalType": "uint256",
          "name": "wantSell",
          "type": "uint256"
        }
      ],
      "payable": false,
      "stateMutability": "view",
      "type": "function"
    },
    {
      "constant": true,
      "inputs": [],
      "name": "totalLandsCounter",
      "outputs": [
        {
          "internalType": "uint256",
          "name": "",
          "type": "uint256"
        }
      ],
      "payable": false,
      "stateMutability": "view",
      "type": "function"
    },
    {
      "constant": true,
      "inputs": [],
      "name": "getNumberofLands",
      "outputs": [
        {
          "internalType": "uint256",
          "name": "",
          "type": "uint256"
        }
      ],
      "payable": false,
      "stateMutability": "view",
      "type": "function"
    },
    {
      "constant": false,
      "inputs": [
        {
          "internalType": "address",
          "name": "propertyOwner",
          "type": "address"
        },
        {
          "internalType": "string",
          "name": "_location",
          "type": "string"
        },
        {
          "internalType": "uint256",
          "name": "_cost",
          "type": "uint256"
        }
      ],
      "name": "addLand",
      "outputs": [
        {
          "internalType": "uint256",
          "name": "",
          "type": "uint256"
        }
      ],
      "payable": false,
      "stateMutability": "nonpayable",
      "type": "function"
    },
    {
      "constant": true,
      "inputs": [
        {
          "internalType": "address",
          "name": "_landHolder",
          "type": "address"
        }
      ],
      "name": "getNoOfLands",
      "outputs": [
        {
          "internalType": "uint256",
          "name": "",
          "type": "uint256"
        }
      ],
      "payable": false,
      "stateMutability": "view",
      "type": "function"
    },
    {
      "constant": true,
      "inputs": [],
      "name": "getTotlaLandCounter",
      "outputs": [
        {
          "internalType": "uint256",
          "name": "",
          "type": "uint256"
        }
      ],
      "payable": false,
      "stateMutability": "view",
      "type": "function"
    }
  ],
  "bytecode": "0x608060405234801561001057600080fd5b5060008081905550610773806100276000396000f3fe608060405234801561001057600080fd5b50600436106100625760003560e01c806305efe9c71461006757806326f82448146101765780633927691a1461026f57806356e97ca01461028d57806382f557ae146102ab578063db9d0551146102c9575b600080fd5b6100b36004803603604081101561007d57600080fd5b81019080803573ffffffffffffffffffffffffffffffffffffffff16906020019092919080359060200190929190505050610321565b604051808673ffffffffffffffffffffffffffffffffffffffff1673ffffffffffffffffffffffffffffffffffffffff16815260200180602001858152602001848152602001838152602001828103825286818151815260200191508051906020019080838360005b8381101561013757808201518184015260208101905061011c565b50505050905090810190601f1680156101645780820380516001836020036101000a031916815260200191505b50965050505050505060405180910390f35b6102596004803603606081101561018c57600080fd5b81019080803573ffffffffffffffffffffffffffffffffffffffff169060200190929190803590602001906401000000008111156101c957600080fd5b8201836020820111156101db57600080fd5b803590602001918460018302840111640100000000831117156101fd57600080fd5b91908080601f016020809104026020016040519081016040528093929190818152602001838380828437600081840152601f19601f82011690508083019250505050505050919291929080359060200190929190505050610429565b6040518082815260200191505060405180910390f35b6102776105eb565b6040518082815260200191505060405180910390f35b6102956105f4565b6040518082815260200191505060405180910390f35b6102b36105fd565b6040518082815260200191505060405180910390f35b61030b600480360360208110156102df57600080fd5b81019080803573ffffffffffffffffffffffffffffffffffffffff169060200190929190505050610603565b6040518082815260200191505060405180910390f35b6001602052816000526040600020818154811061033a57fe5b9060005260206000209060050201600091509150508060000160009054906101000a900473ffffffffffffffffffffffffffffffffffffffff1690806001018054600181600116156101000203166002900480601f01602080910402602001604051908101604052809291908181526020018280546001816001161561010002031660029004801561040d5780601f106103e25761010080835404028352916020019161040d565b820191906000526020600020905b8154815290600101906020018083116103f057829003601f168201915b5050505050908060020154908060030154908060040154905085565b600060016000540160008190555061043f610654565b6040518060a001604052808673ffffffffffffffffffffffffffffffffffffffff168152602001858152602001848152602001600054815260200160018152509050600160008673ffffffffffffffffffffffffffffffffffffffff1673ffffffffffffffffffffffffffffffffffffffff168152602001908152602001600020819080600181540180825580915050906001820390600052602060002090600502016000909192909190915060008201518160000160006101000a81548173ffffffffffffffffffffffffffffffffffffffff021916908373ffffffffffffffffffffffffffffffffffffffff160217905550602082015181600101908051906020019061054f929190610699565b506040820151816002015560608201518160030155608082015181600401555050507f2728c9d3205d667bbc0eefdfeda366261b4d021949630c047f3e5834b30611ab85600054604051808373ffffffffffffffffffffffffffffffffffffffff1673ffffffffffffffffffffffffffffffffffffffff1681526020018281526020019250505060405180910390a16000549150509392505050565b60008054905090565b60008054905090565b60005481565b600080600160008473ffffffffffffffffffffffffffffffffffffffff1673ffffffffffffffffffffffffffffffffffffffff16815260200190815260200160002080549050905080915050919050565b6040518060a00160405280600073ffffffffffffffffffffffffffffffffffffffff168152602001606081526020016000815260200160008152602001600081525090565b828054600181600116156101000203166002900490600052602060002090601f016020900481019282601f106106da57805160ff1916838001178555610708565b82800160010185558215610708579182015b828111156107075782518255916020019190600101906106ec565b5b5090506107159190610719565b5090565b61073b91905b8082111561073757600081600090555060010161071f565b5090565b9056fea265627a7a7231582044eac629c7d18bf09cf3e4b3a3fca19527ba4db486eb67e90777d416ff7f1bdc64736f6c63430005100032",
  "source": "pragma solidity ^0.5.11;\ncontract MyLandContract\n{\n    //This contract is for real estate \n    uint public totalLandsCounter;\n\n\n    struct Land\n    {\n        address ownerAddress;\n        string location;\n        uint cost;\n        uint landID;\n        uint wantSell;\n    }\n\n    \n    // Land myLand = Land (0xAb8483F64d9C6d1EcF9b849Ae677dD3315835cb2,1, 1)\n    mapping(address => Land[]) public __ownedLands;\n\n    constructor() public\n    {\n        totalLandsCounter = 0;\n        \n    }\n\n    function getNumberofLands() public view returns (uint)\n    {   \n        //totalLandsCounter++;\n        return totalLandsCounter;\n    }\n\n    //declaring an event \n    event Add(address _owner, uint _landID);\n    \n    // to add the property\n    function addLand(address propertyOwner, string memory _location, uint _cost) public returns(uint)\n    {\n        totalLandsCounter = totalLandsCounter +1;\n        Land memory  myLand = Land({\n            ownerAddress: propertyOwner,\n            location: _location,\n            cost : _cost,\n            landID :totalLandsCounter,\n            wantSell: 1\n\n            \n        });\n        __ownedLands[propertyOwner].push(myLand);\n        emit Add(propertyOwner, totalLandsCounter);\n\n        return totalLandsCounter;\n    }\n\n    function getNoOfLands(address _landHolder) public view returns(uint)\n    {\n        uint index;\n        index = __ownedLands[_landHolder].length;\n\n        return index;\n    }\n\n    function getTotlaLandCounter() public view returns(uint)\n    {\n        return totalLandsCounter;\n    }\n    \n    \n}",
  "sourcePath": "D:/development/FintechSG/Blockchain/PropertyContract/contracts/MyLandContract.sol",
  "compiler": {
    "name": "solc",
    "version": "0.5.16+commit.9c3226ce.Emscripten.clang"
  },
  "schemaVersion": "3.3.0",
  "updatedAt": "2020-10-14T05:11:15.798Z",
  "networkType": "ethereum",
  "devdoc": {
    "methods": {}
  },
  "userdoc": {
    "methods": {}
  }
}