{
  "contractName": "PropertyTitle",
  "abi": [
    {
      "inputs": [],
      "payable": false,
      "stateMutability": "nonpayable",
      "type": "constructor"
    },
    {
      "anonymous": false,
      "inputs": [
        {
          "indexed": false,
          "internalType": "address",
          "name": "ethaddress",
          "type": "address"
        },
        {
          "indexed": false,
          "internalType": "uint256",
          "name": "_landID",
          "type": "uint256"
        }
      ],
      "name": "Add",
      "type": "event"
    },
    {
      "constant": true,
      "inputs": [
        {
          "internalType": "address",
          "name": "",
          "type": "address"
        },
        {
          "internalType": "uint256",
          "name": "",
          "type": "uint256"
        }
      ],
      "name": "__properties",
      "outputs": [
        {
          "internalType": "uint256",
          "name": "id",
          "type": "uint256"
        },
        {
          "internalType": "uint256",
          "name": "value",
          "type": "uint256"
        },
        {
          "internalType": "string",
          "name": "propAddress",
          "type": "string"
        },
        {
          "internalType": "address",
          "name": "owner",
          "type": "address"
        },
        {
          "internalType": "bool",
          "name": "sold",
          "type": "bool"
        }
      ],
      "payable": false,
      "stateMutability": "view",
      "type": "function"
    },
    {
      "constant": true,
      "inputs": [],
      "name": "registrar",
      "outputs": [
        {
          "internalType": "address",
          "name": "",
          "type": "address"
        }
      ],
      "payable": false,
      "stateMutability": "view",
      "type": "function"
    },
    {
      "constant": false,
      "inputs": [
        {
          "internalType": "uint256",
          "name": "_value",
          "type": "uint256"
        },
        {
          "internalType": "string",
          "name": "_addr",
          "type": "string"
        },
        {
          "internalType": "address",
          "name": "_owner",
          "type": "address"
        }
      ],
      "name": "add",
      "outputs": [],
      "payable": false,
      "stateMutability": "nonpayable",
      "type": "function"
    },
    {
      "constant": false,
      "inputs": [
        {
          "internalType": "uint256",
          "name": "_id",
          "type": "uint256"
        },
        {
          "internalType": "address",
          "name": "_newOwner",
          "type": "address"
        }
      ],
      "name": "buy",
      "outputs": [],
      "payable": false,
      "stateMutability": "nonpayable",
      "type": "function"
    },
    {
      "constant": true,
      "inputs": [],
      "name": "getUnsold",
      "outputs": [
        {
          "internalType": "uint256[]",
          "name": "",
          "type": "uint256[]"
        }
      ],
      "payable": false,
      "stateMutability": "view",
      "type": "function"
    },
    {
      "constant": true,
      "inputs": [
        {
          "internalType": "uint256",
          "name": "_id",
          "type": "uint256"
        },
        {
          "internalType": "address",
          "name": "_owner",
          "type": "address"
        }
      ],
      "name": "getProperty",
      "outputs": [
        {
          "internalType": "uint256",
          "name": "",
          "type": "uint256"
        },
        {
          "internalType": "string",
          "name": "",
          "type": "string"
        }
      ],
      "payable": false,
      "stateMutability": "view",
      "type": "function"
    },
    {
      "constant": false,
      "inputs": [
        {
          "internalType": "uint256",
          "name": "_id",
          "type": "uint256"
        },
        {
          "internalType": "uint256",
          "name": "_value",
          "type": "uint256"
        },
        {
          "internalType": "address",
          "name": "_owner",
          "type": "address"
        }
      ],
      "name": "setProperty",
      "outputs": [
        {
          "internalType": "uint256",
          "name": "",
          "type": "uint256"
        },
        {
          "internalType": "address",
          "name": "",
          "type": "address"
        }
      ],
      "payable": false,
      "stateMutability": "nonpayable",
      "type": "function"
    }
  ],
  "bytecode": "0x608060405234801561001057600080fd5b50336000806101000a81548173ffffffffffffffffffffffffffffffffffffffff021916908373ffffffffffffffffffffffffffffffffffffffff1602179055506000600181905550611571806100686000396000f3fe608060405234801561001057600080fd5b506004361061007d5760003560e01c8063611bfce61161005b578063611bfce61461027e57806363a3c452146103635780636d2ad850146103c25780637deb6025146104905761007d565b80630610a806146100825780632b20e3971461019557806359452253146101df575b600080fd5b6100ce6004803603604081101561009857600080fd5b81019080803573ffffffffffffffffffffffffffffffffffffffff169060200190929190803590602001909291905050506104de565b60405180868152602001858152602001806020018473ffffffffffffffffffffffffffffffffffffffff1673ffffffffffffffffffffffffffffffffffffffff16815260200183151515158152602001828103825285818151815260200191508051906020019080838360005b8381101561015657808201518184015260208101905061013b565b50505050905090810190601f1680156101835780820380516001836020036101000a031916815260200191505b50965050505050505060405180910390f35b61019d6105f3565b604051808273ffffffffffffffffffffffffffffffffffffffff1673ffffffffffffffffffffffffffffffffffffffff16815260200191505060405180910390f35b610235600480360360608110156101f557600080fd5b810190808035906020019092919080359060200190929190803573ffffffffffffffffffffffffffffffffffffffff169060200190929190505050610618565b604051808381526020018273ffffffffffffffffffffffffffffffffffffffff1673ffffffffffffffffffffffffffffffffffffffff1681526020019250505060405180910390f35b6103616004803603606081101561029457600080fd5b8101908080359060200190929190803590602001906401000000008111156102bb57600080fd5b8201836020820111156102cd57600080fd5b803590602001918460018302840111640100000000831117156102ef57600080fd5b91908080601f016020809104026020016040519081016040528093929190818152602001838380828437600081840152601f19601f820116905080830192505050505050509192919290803573ffffffffffffffffffffffffffffffffffffffff16906020019092919050505061087c565b005b61036b610a6d565b6040518080602001828103825283818151815260200191508051906020019060200280838360005b838110156103ae578082015181840152602081019050610393565b505050509050019250505060405180910390f35b61040e600480360360408110156103d857600080fd5b8101908080359060200190929190803573ffffffffffffffffffffffffffffffffffffffff169060200190929190505050610cc5565b6040518083815260200180602001828103825283818151815260200191508051906020019080838360005b83811015610454578082015181840152602081019050610439565b50505050905090810190601f1680156104815780820380516001836020036101000a031916815260200191505b50935050505060405180910390f35b6104dc600480360360408110156104a657600080fd5b8101908080359060200190929190803573ffffffffffffffffffffffffffffffffffffffff169060200190929190505050611085565b005b600260205281600052604060002081815481106104f757fe5b906000526020600020906004020160009150915050806000015490806001015490806002018054600181600116156101000203166002900480601f0160208091040260200160405190810160405280929190818152602001828054600181600116156101000203166002900480156105b05780601f10610585576101008083540402835291602001916105b0565b820191906000526020600020905b81548152906001019060200180831161059357829003601f168201915b5050505050908060030160009054906101000a900473ffffffffffffffffffffffffffffffffffffffff16908060030160149054906101000a900460ff16905085565b6000809054906101000a900473ffffffffffffffffffffffffffffffffffffffff1681565b60008060008090505b600260008060009054906101000a900473ffffffffffffffffffffffffffffffffffffffff1673ffffffffffffffffffffffffffffffffffffffff1673ffffffffffffffffffffffffffffffffffffffff168152602001908152602001600020805490508110156108655785600260008060009054906101000a900473ffffffffffffffffffffffffffffffffffffffff1673ffffffffffffffffffffffffffffffffffffffff1673ffffffffffffffffffffffffffffffffffffffff16815260200190815260200160002082815481106106f857fe5b90600052602060002090600402016000015414156108585784600260008060009054906101000a900473ffffffffffffffffffffffffffffffffffffffff1673ffffffffffffffffffffffffffffffffffffffff1673ffffffffffffffffffffffffffffffffffffffff168152602001908152602001600020828154811061077c57fe5b90600052602060002090600402016001018190555083600260008060009054906101000a900473ffffffffffffffffffffffffffffffffffffffff1673ffffffffffffffffffffffffffffffffffffffff1673ffffffffffffffffffffffffffffffffffffffff16815260200190815260200160002082815481106107fd57fe5b906000526020600020906004020160030160006101000a81548173ffffffffffffffffffffffffffffffffffffffff021916908373ffffffffffffffffffffffffffffffffffffffff16021790555084849250925050610874565b8080600101915050610621565b50600080819150809050915091505b935093915050565b600180540160018190555061088f611450565b6040518060a0016040528060015481526020018581526020018481526020018373ffffffffffffffffffffffffffffffffffffffff168152602001600015158152509050600260008060009054906101000a900473ffffffffffffffffffffffffffffffffffffffff1673ffffffffffffffffffffffffffffffffffffffff1673ffffffffffffffffffffffffffffffffffffffff16815260200190815260200160002081908060018154018082558091505090600182039060005260206000209060040201600090919290919091506000820151816000015560208201518160010155604082015181600201908051906020019061098f929190611497565b5060608201518160030160006101000a81548173ffffffffffffffffffffffffffffffffffffffff021916908373ffffffffffffffffffffffffffffffffffffffff16021790555060808201518160030160146101000a81548160ff0219169083151502179055505050507f2728c9d3205d667bbc0eefdfeda366261b4d021949630c047f3e5834b30611ab82600154604051808373ffffffffffffffffffffffffffffffffffffffff1673ffffffffffffffffffffffffffffffffffffffff1681526020018281526020019250505060405180910390a150505050565b606080600260008060009054906101000a900473ffffffffffffffffffffffffffffffffffffffff1673ffffffffffffffffffffffffffffffffffffffff1673ffffffffffffffffffffffffffffffffffffffff16815260200190815260200160002080549050604051908082528060200260200182016040528015610b025781602001602082028038833980820191505090505b509050600080905060008090505b600260008060009054906101000a900473ffffffffffffffffffffffffffffffffffffffff1673ffffffffffffffffffffffffffffffffffffffff1673ffffffffffffffffffffffffffffffffffffffff16815260200190815260200160002080549050811015610cbc5760001515600260008060009054906101000a900473ffffffffffffffffffffffffffffffffffffffff1673ffffffffffffffffffffffffffffffffffffffff1673ffffffffffffffffffffffffffffffffffffffff1681526020019081526020016000208281548110610bea57fe5b906000526020600020906004020160030160149054906101000a900460ff1615151415610caf57600260008060009054906101000a900473ffffffffffffffffffffffffffffffffffffffff1673ffffffffffffffffffffffffffffffffffffffff1673ffffffffffffffffffffffffffffffffffffffff1681526020019081526020016000208181548110610c7c57fe5b906000526020600020906004020160000154838381518110610c9a57fe5b60200260200101818152505081806001019250505b8080600101915050610b10565b50819250505090565b6000606060008090505b600260008060009054906101000a900473ffffffffffffffffffffffffffffffffffffffff1673ffffffffffffffffffffffffffffffffffffffff1673ffffffffffffffffffffffffffffffffffffffff1681526020019081526020016000208054905081101561103d5784600260008060009054906101000a900473ffffffffffffffffffffffffffffffffffffffff1673ffffffffffffffffffffffffffffffffffffffff1673ffffffffffffffffffffffffffffffffffffffff1681526020019081526020016000208281548110610da657fe5b906000526020600020906004020160000154148015610e8c57508373ffffffffffffffffffffffffffffffffffffffff16600260008060009054906101000a900473ffffffffffffffffffffffffffffffffffffffff1673ffffffffffffffffffffffffffffffffffffffff1673ffffffffffffffffffffffffffffffffffffffff1681526020019081526020016000208281548110610e4257fe5b906000526020600020906004020160030160009054906101000a900473ffffffffffffffffffffffffffffffffffffffff1673ffffffffffffffffffffffffffffffffffffffff16145b1561103057600260008060009054906101000a900473ffffffffffffffffffffffffffffffffffffffff1673ffffffffffffffffffffffffffffffffffffffff1673ffffffffffffffffffffffffffffffffffffffff1681526020019081526020016000208181548110610efc57fe5b906000526020600020906004020160010154600260008060009054906101000a900473ffffffffffffffffffffffffffffffffffffffff1673ffffffffffffffffffffffffffffffffffffffff1673ffffffffffffffffffffffffffffffffffffffff1681526020019081526020016000208281548110610f7957fe5b9060005260206000209060040201600201808054600181600116156101000203166002900480601f01602080910402602001604051908101604052809291908181526020018280546001816001161561010002031660029004801561101f5780601f10610ff45761010080835404028352916020019161101f565b820191906000526020600020905b81548152906001019060200180831161100257829003601f168201915b50505050509050925092505061107e565b8080600101915050610ccf565b5060008090506040518060400160405280600981526020017f4e6f7420466f756e640000000000000000000000000000000000000000000000815250915091505b9250929050565b60008090505b600260008060009054906101000a900473ffffffffffffffffffffffffffffffffffffffff1673ffffffffffffffffffffffffffffffffffffffff1673ffffffffffffffffffffffffffffffffffffffff1681526020019081526020016000208054905081101561144b5782600260008060009054906101000a900473ffffffffffffffffffffffffffffffffffffffff1673ffffffffffffffffffffffffffffffffffffffff1673ffffffffffffffffffffffffffffffffffffffff168152602001908152602001600020828154811061116257fe5b906000526020600020906004020160000154141561143e578173ffffffffffffffffffffffffffffffffffffffff16600260008060009054906101000a900473ffffffffffffffffffffffffffffffffffffffff1673ffffffffffffffffffffffffffffffffffffffff1673ffffffffffffffffffffffffffffffffffffffff16815260200190815260200160002082815481106111fc57fe5b906000526020600020906004020160030160009054906101000a900473ffffffffffffffffffffffffffffffffffffffff1673ffffffffffffffffffffffffffffffffffffffff16141561124f57600080fd5b60001515600260008060009054906101000a900473ffffffffffffffffffffffffffffffffffffffff1673ffffffffffffffffffffffffffffffffffffffff1673ffffffffffffffffffffffffffffffffffffffff16815260200190815260200160002082815481106112be57fe5b906000526020600020906004020160030160149054906101000a900460ff161515146112e957600080fd5b81600260008060009054906101000a900473ffffffffffffffffffffffffffffffffffffffff1673ffffffffffffffffffffffffffffffffffffffff1673ffffffffffffffffffffffffffffffffffffffff168152602001908152602001600020828154811061135557fe5b906000526020600020906004020160030160006101000a81548173ffffffffffffffffffffffffffffffffffffffff021916908373ffffffffffffffffffffffffffffffffffffffff1602179055506001600260008060009054906101000a900473ffffffffffffffffffffffffffffffffffffffff1673ffffffffffffffffffffffffffffffffffffffff1673ffffffffffffffffffffffffffffffffffffffff168152602001908152602001600020828154811061141157fe5b906000526020600020906004020160030160146101000a81548160ff02191690831515021790555061144b565b808060010191505061108b565b505050565b6040518060a00160405280600081526020016000815260200160608152602001600073ffffffffffffffffffffffffffffffffffffffff1681526020016000151581525090565b828054600181600116156101000203166002900490600052602060002090601f016020900481019282601f106114d857805160ff1916838001178555611506565b82800160010185558215611506579182015b828111156115055782518255916020019190600101906114ea565b5b5090506115139190611517565b5090565b61153991905b8082111561153557600081600090555060010161151d565b5090565b9056fea265627a7a723158204a0dbb32cf4851cc0298d5a2fbc09f1670cecd5479cd9c242557f0edb580bc2064736f6c63430005100032",
  "source": "pragma solidity ^0.5.11;\r\n\r\n\r\ncontract PropertyTitle {\r\n\r\n    address public registrar;\r\n    uint propertyCount;\r\n\r\n    constructor() public {\r\n        registrar = msg.sender; // 'msg.sender' is sender of current call, contract deployer for a constructor\r\n        propertyCount = 0;\r\n    }   \r\n    \r\n    struct Property {\r\n        uint id;\r\n        uint value;\r\n        string propAddress;\r\n        address owner;\r\n        bool sold;\r\n    }\r\n    \r\n    mapping(address => Property[]) public __properties;\r\n\r\n    //declaring an event \r\n    event Add(address ethaddress, uint _landID);\r\n    /* \r\n    * Ans A. add new property for sale\r\n    * \r\n    */\r\n    function add(uint _value, string memory _addr, address _owner) public {\r\n        propertyCount = propertyCount +1;\r\n        Property memory  myProperty = Property({\r\n            id : propertyCount,\r\n            value : _value,\r\n            propAddress: _addr,\r\n            owner: _owner,\r\n            sold: false\r\n        });\r\n        __properties[registrar].push(myProperty);\r\n        // log output event\r\n        emit Add(_owner, propertyCount);\r\n    }\r\n     \r\n    /*\r\n    * Ans B. Buy / Transfer ownership\r\n    */\r\n    function buy(uint _id, address _newOwner) public\r\n    {\r\n        for (uint i=0; i< __properties[registrar].length; i++)\r\n        {\r\n            // search for id\r\n            if (__properties[registrar][i].id == _id)\r\n            {\r\n              // ensure buyer and seller not the same\r\n              require(__properties[registrar][i].owner != _newOwner);\r\n              // check property is on sale\r\n              require(__properties[registrar][i].sold == false);\r\n              // change property ownership and mark as sold\r\n              __properties[registrar][i].owner = _newOwner;\r\n              __properties[registrar][i].sold = true;\r\n              break;\r\n            }\r\n        }         \r\n    }\r\n\r\n    /**\r\n    * Ans C. Get all unsold LandID\r\n    * @dev Return unsold LandID\r\n    */\r\n    function getUnsold() public view returns (uint [] memory)\r\n    {\r\n        uint [] memory ret = new uint[](__properties[registrar].length);\r\n        uint unsoldCount =0;\r\n        for (uint i=0; i< __properties[registrar].length; i++)\r\n        {\r\n            if (__properties[registrar][i].sold == false)\r\n            {\r\n              ret[unsoldCount] = __properties[registrar][i].id;\r\n              unsoldCount++;\r\n            }\r\n        }\r\n        \r\n        return ret;\r\n    }\r\n    \r\n    /*\r\n    * Ans D. get property detail using ID and adrress\r\n    * return property value and Address\r\n    */\r\n    function getProperty(uint _id, address _owner) public view returns (uint, string memory)\r\n    {\r\n        for (uint i=0; i< __properties[registrar].length; i++)\r\n        {\r\n            // search propId and owner address\r\n            if (__properties[registrar][i].id == _id\r\n                && __properties[registrar][i].owner == _owner)\r\n            {\r\n              return (__properties[registrar][i].value, __properties[registrar][i].propAddress) ;\r\n            }\r\n        }\r\n        \r\n        return (0, \"Not Found\");\r\n    }\r\n    \r\n    /*\r\n    * Ans E. Edit property detail\r\n    * return updated value\r\n    */\r\n    function setProperty(uint _id, uint _value, address _owner) public returns (uint, address)\r\n    {\r\n        for (uint i=0; i< __properties[registrar].length; i++)\r\n        {\r\n            if (__properties[registrar][i].id == _id)\r\n            {\r\n              __properties[registrar][i].value = _value;\r\n              __properties[registrar][i].owner = _owner;\r\n              return (_value, _owner);\r\n            }\r\n        } \r\n        \r\n        return (0, address(0));\r\n    }\r\n        \r\n\r\n}",
  "sourcePath": "D:/development/FintechSG/Blockchain/PropertyContract/contracts/PropertyTitle.sol",
  "compiler": {
    "name": "solc",
    "version": "0.5.16+commit.9c3226ce.Emscripten.clang"
  },
  "schemaVersion": "3.3.0",
  "updatedAt": "2020-10-14T05:18:12.660Z",
  "networkType": "ethereum",
  "devdoc": {
    "methods": {
      "getUnsold()": {
        "details": "Return unsold LandID"
      }
    }
  },
  "userdoc": {
    "methods": {
      "getUnsold()": {
        "notice": "Ans C. Get all unsold LandID"
      }
    }
  }
}